{
  "_format": "hh-sol-artifact-1",
  "contractName": "TodoList",
  "sourceName": "contracts/ToDo.sol",
  "abi": [
    {
      "inputs": [],
      "stateMutability": "nonpayable",
      "type": "constructor"
    },
    {
      "anonymous": false,
      "inputs": [
        {
          "indexed": true,
          "internalType": "uint256",
          "name": "task_ID",
          "type": "uint256"
        },
        {
          "indexed": true,
          "internalType": "address",
          "name": "creator",
          "type": "address"
        },
        {
          "indexed": true,
          "internalType": "string",
          "name": "message",
          "type": "string"
        },
        {
          "indexed": false,
          "internalType": "bool",
          "name": "status",
          "type": "bool"
        }
      ],
      "name": "CompleteTask",
      "type": "event"
    },
    {
      "anonymous": false,
      "inputs": [
        {
          "indexed": true,
          "internalType": "uint256",
          "name": "task_ID",
          "type": "uint256"
        },
        {
          "indexed": true,
          "internalType": "address",
          "name": "creator",
          "type": "address"
        },
        {
          "indexed": true,
          "internalType": "string",
          "name": "message",
          "type": "string"
        },
        {
          "indexed": false,
          "internalType": "bool",
          "name": "status",
          "type": "bool"
        }
      ],
      "name": "CreateTask",
      "type": "event"
    },
    {
      "anonymous": false,
      "inputs": [
        {
          "indexed": true,
          "internalType": "uint256",
          "name": "task_ID",
          "type": "uint256"
        },
        {
          "indexed": true,
          "internalType": "address",
          "name": "creator",
          "type": "address"
        },
        {
          "indexed": true,
          "internalType": "string",
          "name": "message",
          "type": "string"
        }
      ],
      "name": "DeleteTask",
      "type": "event"
    },
    {
      "anonymous": false,
      "inputs": [
        {
          "indexed": true,
          "internalType": "uint256",
          "name": "task_ID",
          "type": "uint256"
        },
        {
          "indexed": true,
          "internalType": "address",
          "name": "creator",
          "type": "address"
        },
        {
          "indexed": true,
          "internalType": "string",
          "name": "message",
          "type": "string"
        }
      ],
      "name": "UpdateTask",
      "type": "event"
    },
    {
      "inputs": [],
      "name": "_taskCount",
      "outputs": [
        {
          "internalType": "uint256",
          "name": "",
          "type": "uint256"
        }
      ],
      "stateMutability": "view",
      "type": "function"
    },
    {
      "inputs": [],
      "name": "_taskID",
      "outputs": [
        {
          "internalType": "uint256",
          "name": "",
          "type": "uint256"
        }
      ],
      "stateMutability": "view",
      "type": "function"
    },
    {
      "inputs": [],
      "name": "completedTasks",
      "outputs": [
        {
          "components": [
            {
              "internalType": "uint256",
              "name": "task_ID",
              "type": "uint256"
            },
            {
              "internalType": "address",
              "name": "creator",
              "type": "address"
            },
            {
              "internalType": "string",
              "name": "message",
              "type": "string"
            },
            {
              "internalType": "bool",
              "name": "status",
              "type": "bool"
            }
          ],
          "internalType": "struct TodoList.Task[]",
          "name": "",
          "type": "tuple[]"
        }
      ],
      "stateMutability": "view",
      "type": "function"
    },
    {
      "inputs": [
        {
          "internalType": "string",
          "name": "_message",
          "type": "string"
        }
      ],
      "name": "createTask",
      "outputs": [],
      "stateMutability": "nonpayable",
      "type": "function"
    },
    {
      "inputs": [
        {
          "internalType": "uint256",
          "name": "_id",
          "type": "uint256"
        }
      ],
      "name": "deleteTask",
      "outputs": [],
      "stateMutability": "nonpayable",
      "type": "function"
    },
    {
      "inputs": [
        {
          "internalType": "string",
          "name": "_newMessage",
          "type": "string"
        },
        {
          "internalType": "uint256",
          "name": "_id",
          "type": "uint256"
        }
      ],
      "name": "editTask",
      "outputs": [],
      "stateMutability": "nonpayable",
      "type": "function"
    },
    {
      "inputs": [
        {
          "internalType": "uint256",
          "name": "_id",
          "type": "uint256"
        }
      ],
      "name": "getSingleTask",
      "outputs": [
        {
          "internalType": "uint256",
          "name": "taskid",
          "type": "uint256"
        },
        {
          "internalType": "address",
          "name": "creator",
          "type": "address"
        },
        {
          "internalType": "string",
          "name": "message",
          "type": "string"
        },
        {
          "internalType": "bool",
          "name": "status",
          "type": "bool"
        }
      ],
      "stateMutability": "view",
      "type": "function"
    },
    {
      "inputs": [],
      "name": "getTask",
      "outputs": [
        {
          "components": [
            {
              "internalType": "uint256",
              "name": "task_ID",
              "type": "uint256"
            },
            {
              "internalType": "address",
              "name": "creator",
              "type": "address"
            },
            {
              "internalType": "string",
              "name": "message",
              "type": "string"
            },
            {
              "internalType": "bool",
              "name": "status",
              "type": "bool"
            }
          ],
          "internalType": "struct TodoList.Task[]",
          "name": "",
          "type": "tuple[]"
        }
      ],
      "stateMutability": "view",
      "type": "function"
    },
    {
      "inputs": [],
      "name": "owner",
      "outputs": [
        {
          "internalType": "address",
          "name": "",
          "type": "address"
        }
      ],
      "stateMutability": "view",
      "type": "function"
    },
    {
      "inputs": [],
      "name": "pendingTasks",
      "outputs": [
        {
          "components": [
            {
              "internalType": "uint256",
              "name": "task_ID",
              "type": "uint256"
            },
            {
              "internalType": "address",
              "name": "creator",
              "type": "address"
            },
            {
              "internalType": "string",
              "name": "message",
              "type": "string"
            },
            {
              "internalType": "bool",
              "name": "status",
              "type": "bool"
            }
          ],
          "internalType": "struct TodoList.Task[]",
          "name": "",
          "type": "tuple[]"
        }
      ],
      "stateMutability": "view",
      "type": "function"
    },
    {
      "inputs": [
        {
          "internalType": "uint256",
          "name": "_id",
          "type": "uint256"
        }
      ],
      "name": "toggle",
      "outputs": [],
      "stateMutability": "nonpayable",
      "type": "function"
    }
  ],
  "bytecode": "0x608060405234801561001057600080fd5b50336000806101000a81548173ffffffffffffffffffffffffffffffffffffffff021916908373ffffffffffffffffffffffffffffffffffffffff160217905550612128806100606000396000f3fe608060405234801561001057600080fd5b50600436106100a95760003560e01c8063751ef75311610071578063751ef75314610140578063890adad71461015c5780638da5cb5b1461018f578063a31662d2146101ad578063a669532c146101cb578063f013a35c146101e9576100a9565b8063111002aa146100ae5780633b2af9d3146100ca578063413917a9146100e8578063560f3192146101065780635a95da4114610122575b600080fd5b6100c860048036038101906100c3919061170c565b610205565b005b6100d2610414565b6040516100df9190611772565b60405180910390f35b6100f061041a565b6040516100fd9190611772565b60405180910390f35b610120600480360381019061011b91906117b9565b610420565b005b61012a610662565b6040516101379190611a06565b60405180910390f35b61015a600480360381019061015591906117b9565b6109da565b005b610176600480360381019061017191906117b9565b610bee565b6040516101869493929190611a90565b60405180910390f35b610197610f19565b6040516101a49190611adc565b60405180910390f35b6101b5610f3d565b6040516101c29190611a06565b60405180910390f35b6101d36110e6565b6040516101e09190611a06565b60405180910390f35b61020360048036038101906101fe9190611af7565b61145e565b005b6001600081548092919061021890611b86565b91905055506002600081548092919061023090611b86565b9190505550600360003373ffffffffffffffffffffffffffffffffffffffff1673ffffffffffffffffffffffffffffffffffffffff168152602001908152602001600020604051806080016040528060015481526020013373ffffffffffffffffffffffffffffffffffffffff16815260200184848080601f016020809104026020016040519081016040528093929190818152602001838380828437600081840152601f19601f8201169050808301925050505050505081526020016000151581525090806001815401808255809150506001900390600052602060002090600402016000909190919091506000820151816000015560208201518160010160006101000a81548173ffffffffffffffffffffffffffffffffffffffff021916908373ffffffffffffffffffffffffffffffffffffffff16021790555060408201518160020190816103839190611e09565b5060608201518160030160006101000a81548160ff021916908315150217905550505081816040516103b6929190611f1a565b60405180910390203373ffffffffffffffffffffffffffffffffffffffff166001547fc26a1a145c0804ddf2078d528081203f0f3a4242ed58aaa5140460e4a8eaadb660006040516104089190611f33565b60405180910390a45050565b60025481565b60015481565b6000600360003373ffffffffffffffffffffffffffffffffffffffff1673ffffffffffffffffffffffffffffffffffffffff168152602001908152602001600020905060005b818054905081101561065d5782600360003373ffffffffffffffffffffffffffffffffffffffff1673ffffffffffffffffffffffffffffffffffffffff16815260200190815260200160002082815481106104c4576104c3611f4e565b5b9060005260206000209060040201600001540361065057600360003373ffffffffffffffffffffffffffffffffffffffff1673ffffffffffffffffffffffffffffffffffffffff168152602001908152602001600020818154811061052c5761052b611f4e565b5b90600052602060002090600402016000808201600090556001820160006101000a81549073ffffffffffffffffffffffffffffffffffffffff021916905560028201600061057a9190611600565b6003820160006101000a81549060ff02191690555050600360003373ffffffffffffffffffffffffffffffffffffffff1673ffffffffffffffffffffffffffffffffffffffff16815260200190815260200160002081815481106105e1576105e0611f4e565b5b90600052602060002090600402016002016040516105ff9190612000565b60405180910390203373ffffffffffffffffffffffffffffffffffffffff16847f5d67e949b03831da117a043ae67a682478d519813edbb9419090f3d2d16e358160405160405180910390a461065d565b8080600101915050610466565b505050565b6060600080600360003373ffffffffffffffffffffffffffffffffffffffff1673ffffffffffffffffffffffffffffffffffffffff168152602001908152602001600020905060005b818054905081101561074e5760001515600360003373ffffffffffffffffffffffffffffffffffffffff1673ffffffffffffffffffffffffffffffffffffffff168152602001908152602001600020828154811061070c5761070b611f4e565b5b906000526020600020906004020160030160009054906101000a900460ff1615150361074157828061073d90611b86565b9350505b80806001019150506106ab565b5060008267ffffffffffffffff81111561076b5761076a611bce565b5b6040519080825280602002602001820160405280156107a457816020015b610791611640565b8152602001906001900390816107895790505b50905060005b838110156109d05760001515600360003373ffffffffffffffffffffffffffffffffffffffff1673ffffffffffffffffffffffffffffffffffffffff168152602001908152602001600020828154811061080757610806611f4e565b5b906000526020600020906004020160030160009054906101000a900460ff161515036109c357600360003373ffffffffffffffffffffffffffffffffffffffff1673ffffffffffffffffffffffffffffffffffffffff168152602001908152602001600020818154811061087e5761087d611f4e565b5b9060005260206000209060040201604051806080016040529081600082015481526020016001820160009054906101000a900473ffffffffffffffffffffffffffffffffffffffff1673ffffffffffffffffffffffffffffffffffffffff1673ffffffffffffffffffffffffffffffffffffffff16815260200160028201805461090790611c2c565b80601f016020809104026020016040519081016040528092919081815260200182805461093390611c2c565b80156109805780601f1061095557610100808354040283529160200191610980565b820191906000526020600020905b81548152906001019060200180831161096357829003601f168201915b505050505081526020016003820160009054906101000a900460ff1615151515815250508282815181106109b7576109b6611f4e565b5b60200260200101819052505b80806001019150506107aa565b5080935050505090565b6000600360003373ffffffffffffffffffffffffffffffffffffffff1673ffffffffffffffffffffffffffffffffffffffff168152602001908152602001600020905060005b8180549050811015610be95782600360003373ffffffffffffffffffffffffffffffffffffffff1673ffffffffffffffffffffffffffffffffffffffff1681526020019081526020016000208281548110610a7e57610a7d611f4e565b5b90600052602060002090600402016000015403610bdc576001600360003373ffffffffffffffffffffffffffffffffffffffff1673ffffffffffffffffffffffffffffffffffffffff1681526020019081526020016000208281548110610ae857610ae7611f4e565b5b906000526020600020906004020160030160006101000a81548160ff021916908315150217905550600360003373ffffffffffffffffffffffffffffffffffffffff1673ffffffffffffffffffffffffffffffffffffffff1681526020019081526020016000208181548110610b6157610b60611f4e565b5b9060005260206000209060040201600201604051610b7f9190612000565b60405180910390203373ffffffffffffffffffffffffffffffffffffffff16847f7a9808bb6328a3b19ad90a092a7d1202e117707290305875ef06fc71bfe8b3da6001604051610bcf9190611f33565b60405180910390a4610be9565b8080600101915050610a20565b505050565b6000806060600080600360003373ffffffffffffffffffffffffffffffffffffffff1673ffffffffffffffffffffffffffffffffffffffff168152602001908152602001600020905060005b8180549050811015610f0f5786600360003373ffffffffffffffffffffffffffffffffffffffff1673ffffffffffffffffffffffffffffffffffffffff1681526020019081526020016000208281548110610c9857610c97611f4e565b5b90600052602060002090600402016000015403610f0257600360003373ffffffffffffffffffffffffffffffffffffffff1673ffffffffffffffffffffffffffffffffffffffff1681526020019081526020016000208181548110610d0057610cff611f4e565b5b906000526020600020906004020160000154600360003373ffffffffffffffffffffffffffffffffffffffff1673ffffffffffffffffffffffffffffffffffffffff1681526020019081526020016000208281548110610d6357610d62611f4e565b5b906000526020600020906004020160010160009054906101000a900473ffffffffffffffffffffffffffffffffffffffff16600360003373ffffffffffffffffffffffffffffffffffffffff1673ffffffffffffffffffffffffffffffffffffffff1681526020019081526020016000208381548110610de657610de5611f4e565b5b9060005260206000209060040201600201600360003373ffffffffffffffffffffffffffffffffffffffff1673ffffffffffffffffffffffffffffffffffffffff1681526020019081526020016000208481548110610e4857610e47611f4e565b5b906000526020600020906004020160030160009054906101000a900460ff16818054610e7390611c2c565b80601f0160208091040260200160405190810160405280929190818152602001828054610e9f90611c2c565b8015610eec5780601f10610ec157610100808354040283529160200191610eec565b820191906000526020600020905b815481529060010190602001808311610ecf57829003601f168201915b5050505050915095509550955095505050610f12565b8080600101915050610c3a565b50505b9193509193565b60008054906101000a900473ffffffffffffffffffffffffffffffffffffffff1681565b6060600360003373ffffffffffffffffffffffffffffffffffffffff1673ffffffffffffffffffffffffffffffffffffffff168152602001908152602001600020805480602002602001604051908101604052809291908181526020016000905b828210156110dd5783829060005260206000209060040201604051806080016040529081600082015481526020016001820160009054906101000a900473ffffffffffffffffffffffffffffffffffffffff1673ffffffffffffffffffffffffffffffffffffffff1673ffffffffffffffffffffffffffffffffffffffff16815260200160028201805461103190611c2c565b80601f016020809104026020016040519081016040528092919081815260200182805461105d90611c2c565b80156110aa5780601f1061107f576101008083540402835291602001916110aa565b820191906000526020600020905b81548152906001019060200180831161108d57829003601f168201915b505050505081526020016003820160009054906101000a900460ff16151515158152505081526020019060010190610f9e565b50505050905090565b6060600080600360003373ffffffffffffffffffffffffffffffffffffffff1673ffffffffffffffffffffffffffffffffffffffff168152602001908152602001600020905060005b81805490508110156111d25760001515600360003373ffffffffffffffffffffffffffffffffffffffff1673ffffffffffffffffffffffffffffffffffffffff16815260200190815260200160002082815481106111905761118f611f4e565b5b906000526020600020906004020160030160009054906101000a900460ff161515036111c55782806111c190611b86565b9350505b808060010191505061112f565b5060008267ffffffffffffffff8111156111ef576111ee611bce565b5b60405190808252806020026020018201604052801561122857816020015b611215611640565b81526020019060019003908161120d5790505b50905060005b838110156114545760011515600360003373ffffffffffffffffffffffffffffffffffffffff1673ffffffffffffffffffffffffffffffffffffffff168152602001908152602001600020828154811061128b5761128a611f4e565b5b906000526020600020906004020160030160009054906101000a900460ff1615150361144757600360003373ffffffffffffffffffffffffffffffffffffffff1673ffffffffffffffffffffffffffffffffffffffff168152602001908152602001600020818154811061130257611301611f4e565b5b9060005260206000209060040201604051806080016040529081600082015481526020016001820160009054906101000a900473ffffffffffffffffffffffffffffffffffffffff1673ffffffffffffffffffffffffffffffffffffffff1673ffffffffffffffffffffffffffffffffffffffff16815260200160028201805461138b90611c2c565b80601f01602080910402602001604051908101604052809291908181526020018280546113b790611c2c565b80156114045780601f106113d957610100808354040283529160200191611404565b820191906000526020600020905b8154815290600101906020018083116113e757829003601f168201915b505050505081526020016003820160009054906101000a900460ff16151515158152505082828151811061143b5761143a611f4e565b5b60200260200101819052505b808060010191505061122e565b5080935050505090565b6000600360003373ffffffffffffffffffffffffffffffffffffffff1673ffffffffffffffffffffffffffffffffffffffff168152602001908152602001600020905060005b81805490508110156115f95782600360003373ffffffffffffffffffffffffffffffffffffffff1673ffffffffffffffffffffffffffffffffffffffff168152602001908152602001600020828154811061150257611501611f4e565b5b906000526020600020906004020160000154036115ec578484600360003373ffffffffffffffffffffffffffffffffffffffff1673ffffffffffffffffffffffffffffffffffffffff168152602001908152602001600020838154811061156c5761156b611f4e565b5b9060005260206000209060040201600201918261158a929190612022565b50848460405161159b929190611f1a565b60405180910390203373ffffffffffffffffffffffffffffffffffffffff16847f91df64edd5975ef716e491db73afcee2b6343362ebba9620b3da38c52ddbc4e560405160405180910390a46115f9565b80806001019150506114a4565b5050505050565b50805461160c90611c2c565b6000825580601f1061161e575061163d565b601f01602090049060005260206000209081019061163c9190611680565b5b50565b604051806080016040528060008152602001600073ffffffffffffffffffffffffffffffffffffffff168152602001606081526020016000151581525090565b5b80821115611699576000816000905550600101611681565b5090565b600080fd5b600080fd5b600080fd5b600080fd5b600080fd5b60008083601f8401126116cc576116cb6116a7565b5b8235905067ffffffffffffffff8111156116e9576116e86116ac565b5b602083019150836001820283011115611705576117046116b1565b5b9250929050565b600080602083850312156117235761172261169d565b5b600083013567ffffffffffffffff811115611741576117406116a2565b5b61174d858286016116b6565b92509250509250929050565b6000819050919050565b61176c81611759565b82525050565b60006020820190506117876000830184611763565b92915050565b61179681611759565b81146117a157600080fd5b50565b6000813590506117b38161178d565b92915050565b6000602082840312156117cf576117ce61169d565b5b60006117dd848285016117a4565b91505092915050565b600081519050919050565b600082825260208201905092915050565b6000819050602082019050919050565b61181b81611759565b82525050565b600073ffffffffffffffffffffffffffffffffffffffff82169050919050565b600061184c82611821565b9050919050565b61185c81611841565b82525050565b600081519050919050565b600082825260208201905092915050565b60005b8381101561189c578082015181840152602081019050611881565b60008484015250505050565b6000601f19601f8301169050919050565b60006118c482611862565b6118ce818561186d565b93506118de81856020860161187e565b6118e7816118a8565b840191505092915050565b60008115159050919050565b611907816118f2565b82525050565b60006080830160008301516119256000860182611812565b5060208301516119386020860182611853565b506040830151848203604086015261195082826118b9565b915050606083015161196560608601826118fe565b508091505092915050565b600061197c838361190d565b905092915050565b6000602082019050919050565b600061199c826117e6565b6119a681856117f1565b9350836020820285016119b885611802565b8060005b858110156119f457848403895281516119d58582611970565b94506119e083611984565b925060208a019950506001810190506119bc565b50829750879550505050505092915050565b60006020820190508181036000830152611a208184611991565b905092915050565b611a3181611841565b82525050565b600082825260208201905092915050565b6000611a5382611862565b611a5d8185611a37565b9350611a6d81856020860161187e565b611a76816118a8565b840191505092915050565b611a8a816118f2565b82525050565b6000608082019050611aa56000830187611763565b611ab26020830186611a28565b8181036040830152611ac48185611a48565b9050611ad36060830184611a81565b95945050505050565b6000602082019050611af16000830184611a28565b92915050565b600080600060408486031215611b1057611b0f61169d565b5b600084013567ffffffffffffffff811115611b2e57611b2d6116a2565b5b611b3a868287016116b6565b93509350506020611b4d868287016117a4565b9150509250925092565b7f4e487b7100000000000000000000000000000000000000000000000000000000600052601160045260246000fd5b6000611b9182611759565b91507fffffffffffffffffffffffffffffffffffffffffffffffffffffffffffffffff8203611bc357611bc2611b57565b5b600182019050919050565b7f4e487b7100000000000000000000000000000000000000000000000000000000600052604160045260246000fd5b7f4e487b7100000000000000000000000000000000000000000000000000000000600052602260045260246000fd5b60006002820490506001821680611c4457607f821691505b602082108103611c5757611c56611bfd565b5b50919050565b60008190508160005260206000209050919050565b60006020601f8301049050919050565b600082821b905092915050565b600060088302611cbf7fffffffffffffffffffffffffffffffffffffffffffffffffffffffffffffffff82611c82565b611cc98683611c82565b95508019841693508086168417925050509392505050565b6000819050919050565b6000611d06611d01611cfc84611759565b611ce1565b611759565b9050919050565b6000819050919050565b611d2083611ceb565b611d34611d2c82611d0d565b848454611c8f565b825550505050565b600090565b611d49611d3c565b611d54818484611d17565b505050565b5b81811015611d7857611d6d600082611d41565b600181019050611d5a565b5050565b601f821115611dbd57611d8e81611c5d565b611d9784611c72565b81016020851015611da6578190505b611dba611db285611c72565b830182611d59565b50505b505050565b600082821c905092915050565b6000611de060001984600802611dc2565b1980831691505092915050565b6000611df98383611dcf565b9150826002028217905092915050565b611e1282611862565b67ffffffffffffffff811115611e2b57611e2a611bce565b5b611e358254611c2c565b611e40828285611d7c565b600060209050601f831160018114611e735760008415611e61578287015190505b611e6b8582611ded565b865550611ed3565b601f198416611e8186611c5d565b60005b82811015611ea957848901518255600182019150602085019450602081019050611e84565b86831015611ec65784890151611ec2601f891682611dcf565b8355505b6001600288020188555050505b505050505050565b600081905092915050565b82818337600083830152505050565b6000611f018385611edb565b9350611f0e838584611ee6565b82840190509392505050565b6000611f27828486611ef5565b91508190509392505050565b6000602082019050611f486000830184611a81565b92915050565b7f4e487b7100000000000000000000000000000000000000000000000000000000600052603260045260246000fd5b60008154611f8a81611c2c565b611f948186611edb565b94506001821660008114611faf5760018114611fc457611ff7565b60ff1983168652811515820286019350611ff7565b611fcd85611c5d565b60005b83811015611fef57815481890152600182019150602081019050611fd0565b838801955050505b50505092915050565b600061200c8284611f7d565b915081905092915050565b600082905092915050565b61202c8383612017565b67ffffffffffffffff81111561204557612044611bce565b5b61204f8254611c2c565b61205a828285611d7c565b6000601f8311600181146120895760008415612077578287013590505b6120818582611ded565b8655506120e9565b601f19841661209786611c5d565b60005b828110156120bf5784890135825560018201915060208501945060208101905061209a565b868310156120dc57848901356120d8601f891682611dcf565b8355505b6001600288020188555050505b5050505050505056fea26469706673582212207bce16a267f997e7f4cb5207a199d3146a40912aa6c438ccda0dc2b84f8a7bf564736f6c63430008180033",
  "linkReferences": {},
  "deployedLinkReferences": {}
}